{
  "_format": "hh-sol-artifact-1",
  "contractName": "PFPinatas",
  "sourceName": "contracts/PFPinatas.sol",
  "abi": [
    {
      "inputs": [
        {
          "internalType": "string",
          "name": "baseUri",
          "type": "string"
        }
      ],
      "stateMutability": "nonpayable",
      "type": "constructor"
    },
    {
      "anonymous": false,
      "inputs": [
        {
          "indexed": true,
          "internalType": "address",
          "name": "owner",
          "type": "address"
        },
        {
          "indexed": true,
          "internalType": "address",
          "name": "approved",
          "type": "address"
        },
        {
          "indexed": true,
          "internalType": "uint256",
          "name": "tokenId",
          "type": "uint256"
        }
      ],
      "name": "Approval",
      "type": "event"
    },
    {
      "anonymous": false,
      "inputs": [
        {
          "indexed": true,
          "internalType": "address",
          "name": "owner",
          "type": "address"
        },
        {
          "indexed": true,
          "internalType": "address",
          "name": "operator",
          "type": "address"
        },
        {
          "indexed": false,
          "internalType": "bool",
          "name": "approved",
          "type": "bool"
        }
      ],
      "name": "ApprovalForAll",
      "type": "event"
    },
    {
      "anonymous": false,
      "inputs": [
        {
          "indexed": true,
          "internalType": "address",
          "name": "from",
          "type": "address"
        },
        {
          "indexed": true,
          "internalType": "address",
          "name": "to",
          "type": "address"
        },
        {
          "indexed": true,
          "internalType": "uint256",
          "name": "tokenId",
          "type": "uint256"
        }
      ],
      "name": "Transfer",
      "type": "event"
    },
    {
      "inputs": [
        {
          "internalType": "address",
          "name": "to",
          "type": "address"
        },
        {
          "internalType": "uint256",
          "name": "tokenId",
          "type": "uint256"
        }
      ],
      "name": "approve",
      "outputs": [],
      "stateMutability": "nonpayable",
      "type": "function"
    },
    {
      "inputs": [
        {
          "internalType": "address",
          "name": "owner",
          "type": "address"
        }
      ],
      "name": "balanceOf",
      "outputs": [
        {
          "internalType": "uint256",
          "name": "",
          "type": "uint256"
        }
      ],
      "stateMutability": "view",
      "type": "function"
    },
    {
      "inputs": [
        {
          "internalType": "uint256",
          "name": "tokenId",
          "type": "uint256"
        }
      ],
      "name": "getApproved",
      "outputs": [
        {
          "internalType": "address",
          "name": "",
          "type": "address"
        }
      ],
      "stateMutability": "view",
      "type": "function"
    },
    {
      "inputs": [
        {
          "internalType": "address",
          "name": "owner",
          "type": "address"
        },
        {
          "internalType": "address",
          "name": "operator",
          "type": "address"
        }
      ],
      "name": "isApprovedForAll",
      "outputs": [
        {
          "internalType": "bool",
          "name": "",
          "type": "bool"
        }
      ],
      "stateMutability": "view",
      "type": "function"
    },
    {
      "inputs": [
        {
          "internalType": "address",
          "name": "receiver",
          "type": "address"
        }
      ],
      "name": "mintTo",
      "outputs": [
        {
          "internalType": "uint256",
          "name": "",
          "type": "uint256"
        }
      ],
      "stateMutability": "nonpayable",
      "type": "function"
    },
    {
      "inputs": [],
      "name": "name",
      "outputs": [
        {
          "internalType": "string",
          "name": "",
          "type": "string"
        }
      ],
      "stateMutability": "view",
      "type": "function"
    },
    {
      "inputs": [
        {
          "internalType": "uint256",
          "name": "tokenId",
          "type": "uint256"
        }
      ],
      "name": "ownerOf",
      "outputs": [
        {
          "internalType": "address",
          "name": "",
          "type": "address"
        }
      ],
      "stateMutability": "view",
      "type": "function"
    },
    {
      "inputs": [
        {
          "internalType": "address",
          "name": "from",
          "type": "address"
        },
        {
          "internalType": "address",
          "name": "to",
          "type": "address"
        },
        {
          "internalType": "uint256",
          "name": "tokenId",
          "type": "uint256"
        }
      ],
      "name": "safeTransferFrom",
      "outputs": [],
      "stateMutability": "nonpayable",
      "type": "function"
    },
    {
      "inputs": [
        {
          "internalType": "address",
          "name": "from",
          "type": "address"
        },
        {
          "internalType": "address",
          "name": "to",
          "type": "address"
        },
        {
          "internalType": "uint256",
          "name": "tokenId",
          "type": "uint256"
        },
        {
          "internalType": "bytes",
          "name": "_data",
          "type": "bytes"
        }
      ],
      "name": "safeTransferFrom",
      "outputs": [],
      "stateMutability": "nonpayable",
      "type": "function"
    },
    {
      "inputs": [
        {
          "internalType": "address",
          "name": "operator",
          "type": "address"
        },
        {
          "internalType": "bool",
          "name": "approved",
          "type": "bool"
        }
      ],
      "name": "setApprovalForAll",
      "outputs": [],
      "stateMutability": "nonpayable",
      "type": "function"
    },
    {
      "inputs": [
        {
          "internalType": "bytes4",
          "name": "interfaceId",
          "type": "bytes4"
        }
      ],
      "name": "supportsInterface",
      "outputs": [
        {
          "internalType": "bool",
          "name": "",
          "type": "bool"
        }
      ],
      "stateMutability": "view",
      "type": "function"
    },
    {
      "inputs": [],
      "name": "symbol",
      "outputs": [
        {
          "internalType": "string",
          "name": "",
          "type": "string"
        }
      ],
      "stateMutability": "view",
      "type": "function"
    },
    {
      "inputs": [
        {
          "internalType": "uint256",
          "name": "tokenId",
          "type": "uint256"
        }
      ],
      "name": "tokenURI",
      "outputs": [
        {
          "internalType": "string",
          "name": "",
          "type": "string"
        }
      ],
      "stateMutability": "view",
      "type": "function"
    },
    {
      "inputs": [
        {
          "internalType": "address",
          "name": "from",
          "type": "address"
        },
        {
          "internalType": "address",
          "name": "to",
          "type": "address"
        },
        {
          "internalType": "uint256",
          "name": "tokenId",
          "type": "uint256"
        }
      ],
      "name": "transferFrom",
      "outputs": [],
      "stateMutability": "nonpayable",
      "type": "function"
    }
  ],
  "bytecode": "0x60806040523480156200001157600080fd5b5060405162002b1038038062002b10833981810160405281019062000037919062000219565b6040518060400160405280600981526020017f504650696e6174617300000000000000000000000000000000000000000000008152506040518060400160405280600481526020017f50465050000000000000000000000000000000000000000000000000000000008152508160009080519060200190620000bb929190620000f7565b508060019080519060200190620000d4929190620000f7565b5050508060079080519060200190620000ef929190620000f7565b5050620003ce565b8280546200010590620002f3565b90600052602060002090601f01602090048101928262000129576000855562000175565b82601f106200014457805160ff191683800117855562000175565b8280016001018555821562000175579182015b828111156200017457825182559160200191906001019062000157565b5b50905062000184919062000188565b5090565b5b80821115620001a357600081600090555060010162000189565b5090565b6000620001be620001b88462000287565b6200025e565b905082815260208101848484011115620001d757600080fd5b620001e4848285620002bd565b509392505050565b600082601f830112620001fe57600080fd5b815162000210848260208601620001a7565b91505092915050565b6000602082840312156200022c57600080fd5b600082015167ffffffffffffffff8111156200024757600080fd5b6200025584828501620001ec565b91505092915050565b60006200026a6200027d565b905062000278828262000329565b919050565b6000604051905090565b600067ffffffffffffffff821115620002a557620002a46200038e565b5b620002b082620003bd565b9050602081019050919050565b60005b83811015620002dd578082015181840152602081019050620002c0565b83811115620002ed576000848401525b50505050565b600060028204905060018216806200030c57607f821691505b602082108114156200032357620003226200035f565b5b50919050565b6200033482620003bd565b810181811067ffffffffffffffff821117156200035657620003556200038e565b5b80604052505050565b7f4e487b7100000000000000000000000000000000000000000000000000000000600052602260045260246000fd5b7f4e487b7100000000000000000000000000000000000000000000000000000000600052604160045260246000fd5b6000601f19601f8301169050919050565b61273280620003de6000396000f3fe608060405234801561001057600080fd5b50600436106100ea5760003560e01c806370a082311161008c578063a22cb46511610066578063a22cb4651461026f578063b88d4fde1461028b578063c87b56dd146102a7578063e985e9c5146102d7576100ea565b806370a08231146101f1578063755edd171461022157806395d89b4114610251576100ea565b8063095ea7b3116100c8578063095ea7b31461016d57806323b872dd1461018957806342842e0e146101a55780636352211e146101c1576100ea565b806301ffc9a7146100ef57806306fdde031461011f578063081812fc1461013d575b600080fd5b61010960048036038101906101049190611932565b610307565b6040516101169190611d4e565b60405180910390f35b6101276103e9565b6040516101349190611d69565b60405180910390f35b61015760048036038101906101529190611984565b61047b565b6040516101649190611ce7565b60405180910390f35b610187600480360381019061018291906118f6565b610500565b005b6101a3600480360381019061019e91906117f0565b610618565b005b6101bf60048036038101906101ba91906117f0565b610678565b005b6101db60048036038101906101d69190611984565b610698565b6040516101e89190611ce7565b60405180910390f35b61020b6004803603810190610206919061178b565b61074a565b6040516102189190611f2b565b60405180910390f35b61023b6004803603810190610236919061178b565b610802565b6040516102489190611f2b565b60405180910390f35b61025961082f565b6040516102669190611d69565b60405180910390f35b610289600480360381019061028491906118ba565b6108c1565b005b6102a560048036038101906102a0919061183f565b6108d7565b005b6102c160048036038101906102bc9190611984565b610939565b6040516102ce9190611d69565b60405180910390f35b6102f160048036038101906102ec91906117b4565b610999565b6040516102fe9190611d4e565b60405180910390f35b60007f80ac58cd000000000000000000000000000000000000000000000000000000007bffffffffffffffffffffffffffffffffffffffffffffffffffffffff1916827bffffffffffffffffffffffffffffffffffffffffffffffffffffffff191614806103d257507f5b5e139f000000000000000000000000000000000000000000000000000000007bffffffffffffffffffffffffffffffffffffffffffffffffffffffff1916827bffffffffffffffffffffffffffffffffffffffffffffffffffffffff1916145b806103e257506103e182610a2d565b5b9050919050565b6060600080546103f890612165565b80601f016020809104026020016040519081016040528092919081815260200182805461042490612165565b80156104715780601f1061044657610100808354040283529160200191610471565b820191906000526020600020905b81548152906001019060200180831161045457829003601f168201915b5050505050905090565b600061048682610a97565b6104c5576040517f08c379a00000000000000000000000000000000000000000000000000000000081526004016104bc90611ecb565b60405180910390fd5b6004600083815260200190815260200160002060009054906101000a900473ffffffffffffffffffffffffffffffffffffffff169050919050565b600061050b82610698565b90508073ffffffffffffffffffffffffffffffffffffffff168373ffffffffffffffffffffffffffffffffffffffff16141561057c576040517f08c379a000000000000000000000000000000000000000000000000000000000815260040161057390611eeb565b60405180910390fd5b8073ffffffffffffffffffffffffffffffffffffffff1661059b610b03565b73ffffffffffffffffffffffffffffffffffffffff1614806105ca57506105c9816105c4610b03565b610999565b5b610609576040517f08c379a000000000000000000000000000000000000000000000000000000000815260040161060090611e4b565b60405180910390fd5b6106138383610b0b565b505050565b610629610623610b03565b82610bc4565b610668576040517f08c379a000000000000000000000000000000000000000000000000000000000815260040161065f90611f0b565b60405180910390fd5b610673838383610ca2565b505050565b610693838383604051806020016040528060008152506108d7565b505050565b6000806002600084815260200190815260200160002060009054906101000a900473ffffffffffffffffffffffffffffffffffffffff169050600073ffffffffffffffffffffffffffffffffffffffff168173ffffffffffffffffffffffffffffffffffffffff161415610741576040517f08c379a000000000000000000000000000000000000000000000000000000000815260040161073890611e8b565b60405180910390fd5b80915050919050565b60008073ffffffffffffffffffffffffffffffffffffffff168273ffffffffffffffffffffffffffffffffffffffff1614156107bb576040517f08c379a00000000000000000000000000000000000000000000000000000000081526004016107b290611e6b565b60405180910390fd5b600360008373ffffffffffffffffffffffffffffffffffffffff1673ffffffffffffffffffffffffffffffffffffffff168152602001908152602001600020549050919050565b600061080e6006610f09565b600061081a6006610f1f565b90506108268382610f2d565b80915050919050565b60606001805461083e90612165565b80601f016020809104026020016040519081016040528092919081815260200182805461086a90612165565b80156108b75780601f1061088c576101008083540402835291602001916108b7565b820191906000526020600020905b81548152906001019060200180831161089a57829003601f168201915b5050505050905090565b6108d36108cc610b03565b8383610f4b565b5050565b6108e86108e2610b03565b83610bc4565b610927576040517f08c379a000000000000000000000000000000000000000000000000000000000815260040161091e90611f0b565b60405180910390fd5b610933848484846110b8565b50505050565b606060006007805461094a90612165565b9050116109665760405180602001604052806000815250610992565b600761097183611114565b604051602001610982929190611cc3565b6040516020818303038152906040525b9050919050565b6000600560008473ffffffffffffffffffffffffffffffffffffffff1673ffffffffffffffffffffffffffffffffffffffff16815260200190815260200160002060008373ffffffffffffffffffffffffffffffffffffffff1673ffffffffffffffffffffffffffffffffffffffff16815260200190815260200160002060009054906101000a900460ff16905092915050565b60007f01ffc9a7000000000000000000000000000000000000000000000000000000007bffffffffffffffffffffffffffffffffffffffffffffffffffffffff1916827bffffffffffffffffffffffffffffffffffffffffffffffffffffffff1916149050919050565b60008073ffffffffffffffffffffffffffffffffffffffff166002600084815260200190815260200160002060009054906101000a900473ffffffffffffffffffffffffffffffffffffffff1673ffffffffffffffffffffffffffffffffffffffff1614159050919050565b600033905090565b816004600083815260200190815260200160002060006101000a81548173ffffffffffffffffffffffffffffffffffffffff021916908373ffffffffffffffffffffffffffffffffffffffff160217905550808273ffffffffffffffffffffffffffffffffffffffff16610b7e83610698565b73ffffffffffffffffffffffffffffffffffffffff167f8c5be1e5ebec7d5bd14f71427d1e84f3dd0314c0f7b2291e5b200ac8c7c3b92560405160405180910390a45050565b6000610bcf82610a97565b610c0e576040517f08c379a0000000000000000000000000000000000000000000000000000000008152600401610c0590611e2b565b60405180910390fd5b6000610c1983610698565b90508073ffffffffffffffffffffffffffffffffffffffff168473ffffffffffffffffffffffffffffffffffffffff161480610c8857508373ffffffffffffffffffffffffffffffffffffffff16610c708461047b565b73ffffffffffffffffffffffffffffffffffffffff16145b80610c995750610c988185610999565b5b91505092915050565b8273ffffffffffffffffffffffffffffffffffffffff16610cc282610698565b73ffffffffffffffffffffffffffffffffffffffff1614610d18576040517f08c379a0000000000000000000000000000000000000000000000000000000008152600401610d0f90611dab565b60405180910390fd5b600073ffffffffffffffffffffffffffffffffffffffff168273ffffffffffffffffffffffffffffffffffffffff161415610d88576040517f08c379a0000000000000000000000000000000000000000000000000000000008152600401610d7f90611deb565b60405180910390fd5b610d938383836112c1565b610d9e600082610b0b565b6001600360008573ffffffffffffffffffffffffffffffffffffffff1673ffffffffffffffffffffffffffffffffffffffff1681526020019081526020016000206000828254610dee919061207b565b925050819055506001600360008473ffffffffffffffffffffffffffffffffffffffff1673ffffffffffffffffffffffffffffffffffffffff1681526020019081526020016000206000828254610e459190611ff4565b92505081905550816002600083815260200190815260200160002060006101000a81548173ffffffffffffffffffffffffffffffffffffffff021916908373ffffffffffffffffffffffffffffffffffffffff160217905550808273ffffffffffffffffffffffffffffffffffffffff168473ffffffffffffffffffffffffffffffffffffffff167fddf252ad1be2c89b69c2b068fc378daa952ba7f163c4a11628f55a4df523b3ef60405160405180910390a4610f048383836112c6565b505050565b6001816000016000828254019250508190555050565b600081600001549050919050565b610f478282604051806020016040528060008152506112cb565b5050565b8173ffffffffffffffffffffffffffffffffffffffff168373ffffffffffffffffffffffffffffffffffffffff161415610fba576040517f08c379a0000000000000000000000000000000000000000000000000000000008152600401610fb190611e0b565b60405180910390fd5b80600560008573ffffffffffffffffffffffffffffffffffffffff1673ffffffffffffffffffffffffffffffffffffffff16815260200190815260200160002060008473ffffffffffffffffffffffffffffffffffffffff1673ffffffffffffffffffffffffffffffffffffffff16815260200190815260200160002060006101000a81548160ff0219169083151502179055508173ffffffffffffffffffffffffffffffffffffffff168373ffffffffffffffffffffffffffffffffffffffff167f17307eab39ab6107e8899845ad3d59bd9653f200f220920489ca2b5937696c31836040516110ab9190611d4e565b60405180910390a3505050565b6110c3848484610ca2565b6110cf84848484611326565b61110e576040517f08c379a000000000000000000000000000000000000000000000000000000000815260040161110590611d8b565b60405180910390fd5b50505050565b6060600082141561115c576040518060400160405280600181526020017f300000000000000000000000000000000000000000000000000000000000000081525090506112bc565b600082905060005b6000821461118e578080611177906121c8565b915050600a82611187919061204a565b9150611164565b60008167ffffffffffffffff8111156111d0577f4e487b7100000000000000000000000000000000000000000000000000000000600052604160045260246000fd5b6040519080825280601f01601f1916602001820160405280156112025781602001600182028036833780820191505090505b5090505b600085146112b55760018261121b919061207b565b9150600a8561122a9190612211565b60306112369190611ff4565b60f81b818381518110611272577f4e487b7100000000000000000000000000000000000000000000000000000000600052603260045260246000fd5b60200101907effffffffffffffffffffffffffffffffffffffffffffffffffffffffffffff1916908160001a905350600a856112ae919061204a565b9450611206565b8093505050505b919050565b505050565b505050565b6112d583836114bd565b6112e26000848484611326565b611321576040517f08c379a000000000000000000000000000000000000000000000000000000000815260040161131890611d8b565b60405180910390fd5b505050565b60006113478473ffffffffffffffffffffffffffffffffffffffff16611697565b156114b0578373ffffffffffffffffffffffffffffffffffffffff1663150b7a02611370610b03565b8786866040518563ffffffff1660e01b81526004016113929493929190611d02565b602060405180830381600087803b1580156113ac57600080fd5b505af19250505080156113dd57506040513d601f19601f820116820180604052508101906113da919061195b565b60015b611460573d806000811461140d576040519150601f19603f3d011682016040523d82523d6000602084013e611412565b606091505b50600081511415611458576040517f08c379a000000000000000000000000000000000000000000000000000000000815260040161144f90611d8b565b60405180910390fd5b805181602001fd5b63150b7a0260e01b7bffffffffffffffffffffffffffffffffffffffffffffffffffffffff1916817bffffffffffffffffffffffffffffffffffffffffffffffffffffffff1916149150506114b5565b600190505b949350505050565b600073ffffffffffffffffffffffffffffffffffffffff168273ffffffffffffffffffffffffffffffffffffffff16141561152d576040517f08c379a000000000000000000000000000000000000000000000000000000000815260040161152490611eab565b60405180910390fd5b61153681610a97565b15611576576040517f08c379a000000000000000000000000000000000000000000000000000000000815260040161156d90611dcb565b60405180910390fd5b611582600083836112c1565b6001600360008473ffffffffffffffffffffffffffffffffffffffff1673ffffffffffffffffffffffffffffffffffffffff16815260200190815260200160002060008282546115d29190611ff4565b92505081905550816002600083815260200190815260200160002060006101000a81548173ffffffffffffffffffffffffffffffffffffffff021916908373ffffffffffffffffffffffffffffffffffffffff160217905550808273ffffffffffffffffffffffffffffffffffffffff16600073ffffffffffffffffffffffffffffffffffffffff167fddf252ad1be2c89b69c2b068fc378daa952ba7f163c4a11628f55a4df523b3ef60405160405180910390a4611693600083836112c6565b5050565b6000808273ffffffffffffffffffffffffffffffffffffffff163b119050919050565b60006116cd6116c884611f6b565b611f46565b9050828152602081018484840111156116e557600080fd5b6116f0848285612123565b509392505050565b600081359050611707816126a0565b92915050565b60008135905061171c816126b7565b92915050565b600081359050611731816126ce565b92915050565b600081519050611746816126ce565b92915050565b600082601f83011261175d57600080fd5b813561176d8482602086016116ba565b91505092915050565b600081359050611785816126e5565b92915050565b60006020828403121561179d57600080fd5b60006117ab848285016116f8565b91505092915050565b600080604083850312156117c757600080fd5b60006117d5858286016116f8565b92505060206117e6858286016116f8565b9150509250929050565b60008060006060848603121561180557600080fd5b6000611813868287016116f8565b9350506020611824868287016116f8565b925050604061183586828701611776565b9150509250925092565b6000806000806080858703121561185557600080fd5b6000611863878288016116f8565b9450506020611874878288016116f8565b935050604061188587828801611776565b925050606085013567ffffffffffffffff8111156118a257600080fd5b6118ae8782880161174c565b91505092959194509250565b600080604083850312156118cd57600080fd5b60006118db858286016116f8565b92505060206118ec8582860161170d565b9150509250929050565b6000806040838503121561190957600080fd5b6000611917858286016116f8565b925050602061192885828601611776565b9150509250929050565b60006020828403121561194457600080fd5b600061195284828501611722565b91505092915050565b60006020828403121561196d57600080fd5b600061197b84828501611737565b91505092915050565b60006020828403121561199657600080fd5b60006119a484828501611776565b91505092915050565b6119b6816120af565b82525050565b6119c5816120c1565b82525050565b60006119d682611fb1565b6119e08185611fc7565b93506119f0818560208601612132565b6119f9816122fe565b840191505092915050565b6000611a0f82611fbc565b611a198185611fd8565b9350611a29818560208601612132565b611a32816122fe565b840191505092915050565b6000611a4882611fbc565b611a528185611fe9565b9350611a62818560208601612132565b80840191505092915050565b60008154611a7b81612165565b611a858186611fe9565b94506001821660008114611aa05760018114611ab157611ae4565b60ff19831686528186019350611ae4565b611aba85611f9c565b60005b83811015611adc57815481890152600182019150602081019050611abd565b838801955050505b50505092915050565b6000611afa603283611fd8565b9150611b058261230f565b604082019050919050565b6000611b1d602583611fd8565b9150611b288261235e565b604082019050919050565b6000611b40601c83611fd8565b9150611b4b826123ad565b602082019050919050565b6000611b63602483611fd8565b9150611b6e826123d6565b604082019050919050565b6000611b86601983611fd8565b9150611b9182612425565b602082019050919050565b6000611ba9602c83611fd8565b9150611bb48261244e565b604082019050919050565b6000611bcc603883611fd8565b9150611bd78261249d565b604082019050919050565b6000611bef602a83611fd8565b9150611bfa826124ec565b604082019050919050565b6000611c12602983611fd8565b9150611c1d8261253b565b604082019050919050565b6000611c35602083611fd8565b9150611c408261258a565b602082019050919050565b6000611c58602c83611fd8565b9150611c63826125b3565b604082019050919050565b6000611c7b602183611fd8565b9150611c8682612602565b604082019050919050565b6000611c9e603183611fd8565b9150611ca982612651565b604082019050919050565b611cbd81612119565b82525050565b6000611ccf8285611a6e565b9150611cdb8284611a3d565b91508190509392505050565b6000602082019050611cfc60008301846119ad565b92915050565b6000608082019050611d1760008301876119ad565b611d2460208301866119ad565b611d316040830185611cb4565b8181036060830152611d4381846119cb565b905095945050505050565b6000602082019050611d6360008301846119bc565b92915050565b60006020820190508181036000830152611d838184611a04565b905092915050565b60006020820190508181036000830152611da481611aed565b9050919050565b60006020820190508181036000830152611dc481611b10565b9050919050565b60006020820190508181036000830152611de481611b33565b9050919050565b60006020820190508181036000830152611e0481611b56565b9050919050565b60006020820190508181036000830152611e2481611b79565b9050919050565b60006020820190508181036000830152611e4481611b9c565b9050919050565b60006020820190508181036000830152611e6481611bbf565b9050919050565b60006020820190508181036000830152611e8481611be2565b9050919050565b60006020820190508181036000830152611ea481611c05565b9050919050565b60006020820190508181036000830152611ec481611c28565b9050919050565b60006020820190508181036000830152611ee481611c4b565b9050919050565b60006020820190508181036000830152611f0481611c6e565b9050919050565b60006020820190508181036000830152611f2481611c91565b9050919050565b6000602082019050611f406000830184611cb4565b92915050565b6000611f50611f61565b9050611f5c8282612197565b919050565b6000604051905090565b600067ffffffffffffffff821115611f8657611f856122cf565b5b611f8f826122fe565b9050602081019050919050565b60008190508160005260206000209050919050565b600081519050919050565b600081519050919050565b600082825260208201905092915050565b600082825260208201905092915050565b600081905092915050565b6000611fff82612119565b915061200a83612119565b9250827fffffffffffffffffffffffffffffffffffffffffffffffffffffffffffffffff0382111561203f5761203e612242565b5b828201905092915050565b600061205582612119565b915061206083612119565b9250826120705761206f612271565b5b828204905092915050565b600061208682612119565b915061209183612119565b9250828210156120a4576120a3612242565b5b828203905092915050565b60006120ba826120f9565b9050919050565b60008115159050919050565b60007fffffffff0000000000000000000000000000000000000000000000000000000082169050919050565b600073ffffffffffffffffffffffffffffffffffffffff82169050919050565b6000819050919050565b82818337600083830152505050565b60005b83811015612150578082015181840152602081019050612135565b8381111561215f576000848401525b50505050565b6000600282049050600182168061217d57607f821691505b60208210811415612191576121906122a0565b5b50919050565b6121a0826122fe565b810181811067ffffffffffffffff821117156121bf576121be6122cf565b5b80604052505050565b60006121d382612119565b91507fffffffffffffffffffffffffffffffffffffffffffffffffffffffffffffffff82141561220657612205612242565b5b600182019050919050565b600061221c82612119565b915061222783612119565b92508261223757612236612271565b5b828206905092915050565b7f4e487b7100000000000000000000000000000000000000000000000000000000600052601160045260246000fd5b7f4e487b7100000000000000000000000000000000000000000000000000000000600052601260045260246000fd5b7f4e487b7100000000000000000000000000000000000000000000000000000000600052602260045260246000fd5b7f4e487b7100000000000000000000000000000000000000000000000000000000600052604160045260246000fd5b6000601f19601f8301169050919050565b7f4552433732313a207472616e7366657220746f206e6f6e20455243373231526560008201527f63656976657220696d706c656d656e7465720000000000000000000000000000602082015250565b7f4552433732313a207472616e736665722066726f6d20696e636f72726563742060008201527f6f776e6572000000000000000000000000000000000000000000000000000000602082015250565b7f4552433732313a20746f6b656e20616c7265616479206d696e74656400000000600082015250565b7f4552433732313a207472616e7366657220746f20746865207a65726f2061646460008201527f7265737300000000000000000000000000000000000000000000000000000000602082015250565b7f4552433732313a20617070726f766520746f2063616c6c657200000000000000600082015250565b7f4552433732313a206f70657261746f7220717565727920666f72206e6f6e657860008201527f697374656e7420746f6b656e0000000000000000000000000000000000000000602082015250565b7f4552433732313a20617070726f76652063616c6c6572206973206e6f74206f7760008201527f6e6572206e6f7220617070726f76656420666f7220616c6c0000000000000000602082015250565b7f4552433732313a2062616c616e636520717565727920666f7220746865207a6560008201527f726f206164647265737300000000000000000000000000000000000000000000602082015250565b7f4552433732313a206f776e657220717565727920666f72206e6f6e657869737460008201527f656e7420746f6b656e0000000000000000000000000000000000000000000000602082015250565b7f4552433732313a206d696e7420746f20746865207a65726f2061646472657373600082015250565b7f4552433732313a20617070726f76656420717565727920666f72206e6f6e657860008201527f697374656e7420746f6b656e0000000000000000000000000000000000000000602082015250565b7f4552433732313a20617070726f76616c20746f2063757272656e74206f776e6560008201527f7200000000000000000000000000000000000000000000000000000000000000602082015250565b7f4552433732313a207472616e736665722063616c6c6572206973206e6f74206f60008201527f776e6572206e6f7220617070726f766564000000000000000000000000000000602082015250565b6126a9816120af565b81146126b457600080fd5b50565b6126c0816120c1565b81146126cb57600080fd5b50565b6126d7816120cd565b81146126e257600080fd5b50565b6126ee81612119565b81146126f957600080fd5b5056fea2646970667358221220cdbcae48aeea691c8b02fc1f47189cb93ec3c07fdbee41beddfcbe7a968f39e364736f6c63430008040033",
  "linkReferences": {},
  "deployedLinkReferences": {}
}